:100000000C945E000C9486000C9486000C94860080
:100010000C9486000C9486000C9486000C94860048
:100020000C9486000C9486000C9486000C94860038
:100030000C9486000C9486000C9486000C94860028
:100040000C9495040C9486000C9405050C94DF0424
:100050000C9486000C9486000C9486000C94860008
:100060000C9486000C948600000000080002010039
:100070000003040700000000000000000000000072
:10008000250028002B0000000000240027002A0083
:10009000040404040404040402020202020203032E
:1000A0000303030301020408102040800102040836
:1000B00010200102040810203705800711241FBEFC
:1000C000CFEFD8E0DEBFCDBF11E0A0E0B1E0E6EDBC
:1000D000F3E102C005900D92AE33B107D9F722E0EB
:1000E000AEE3B1E001C01D92A530B207E1F710E028
:1000F000CDE5D0E004C02197FE010E948607CC35F3
:10010000D107C9F70E94EB050C94DE090C9400009E
:1001100090E0FC01EC55FF4F2491FC01E057FF4FAC
:100120008491882399F090E0880F991FFC01EA5789
:10013000FF4FA591B491FC01E458FF4F8591949134
:100140008FB7F894EC91E22BEC938FBF08952FB703
:10015000F8948091430190914401A0914501B091A0
:1001600046012FBF80934F0190935001A0935101FE
:10017000B0935201E0914701F09148010284F38568
:10018000E02D87E491E0099597FF26C02FB7F894FA
:100190008091430190914401A0914501B0914601A5
:1001A0002FBF40914F0150915001609151017091CA
:1001B0005201841B950BA60BB70B40914B0150913C
:1001C0004C0160914D0170914E0184179507A6076F
:1001D000B70780F28FEF9FEF089590E0FC01E85998
:1001E000FF4F3491FC01EC55FF4F2491FC01E05787
:1001F000FF4FE491EE2309F43BC0332339F1333050
:1002000091F038F43130A9F0323001F584B58F7DAA
:1002100012C0373091F03830A1F03430B9F4809109
:1002200080008F7D03C0809180008F778093800055
:100230000DC084B58F7784BD09C08091B0008F77E1
:1002400003C08091B0008F7D8093B000F0E0EE0F8E
:10025000FF1FE458FF4FA591B4918FB7F894EC912C
:10026000611103C020952E2301C02E2B2C938FBF2C
:1002700008953FB7F89480913F0190914001A0917B
:100280004101B091420126B5A89B05C02F3F19F04E
:100290000196A11DB11D3FBFBA2FA92F982F882706
:1002A000820F911DA11DB11DBC01CD0142E0660F61
:1002B000771F881F991F4A95D1F708958F929F92B3
:1002C000AF92BF92CF92DF92EF92FF926B017C01CF
:1002D0000E9439014B015C01C114D104E104F10415
:1002E000F1F00E943901DC01CB0188199909AA09B2
:1002F000BB09883E9340A105B10570F321E0C21A05
:10030000D108E108F10888EE880E83E0981EA11C50
:10031000B11CC114D104E104F10419F7DDCFFF9041
:10032000EF90DF90CF90BF90AF909F908F90089507
:100330000895CF92DF92EF92FF920F931F93CF9386
:10034000DF936C017A018B01C0E0D0E0CE15DF05B0
:1003500089F0D8016D918D01D601ED91FC9101904C
:10036000F081E02DC6010995892B11F47E0102C0B0
:100370002196ECCFC701DF91CF911F910F91FF9094
:10038000EF90DF90CF900895FC01538D448D252F81
:1003900030E0842F90E0821B930B541710F0CF961F
:1003A000089501970895FC01918D828D981761F051
:1003B000828DDF01A80FB11D5D968C91928D9F5F9C
:1003C0009F73928F90E008958FEF9FEF0895FC0147
:1003D000918D828D981731F0828DE80FF11D858DFA
:1003E00090E008958FEF9FEF0895FC01918D228D8D
:1003F000892F90E0805C9F4F821B91098F73992712
:10040000089587E491E00E94F50121E0892B09F429
:1004100020E0822F0895FC01848DDF01A80FB11D1B
:10042000A35ABF4F2C91848D90E001968F7399272A
:10043000848FA689B7892C93A089B1898C91806417
:100440008C93938D848D981306C00288F389E02DD8
:1004500080818F7D80830895EF92FF920F931F9389
:10046000CF93DF93EC0181E0888F9B8D8C8D981367
:1004700005C0E889F989808185FD24C0F62E0B8DA1
:1004800010E00F5F1F4F0F731127E02E8C8DE812C5
:100490000CC00FB607FCFACFE889F989808185FF87
:1004A000F5CFCE010E940B02F1CF8B8DFE01E80F3C
:1004B000F11DE35AFF4FF0820B8FEA89FB8980819F
:1004C000806207C0EE89FF896083E889F9898081AD
:1004D0008064808381E090E0DF91CF911F910F9144
:1004E000FF90EF900895CF93DF93EC01888D8823E0
:1004F000C9F0EA89FB89808185FD05C0A889B98991
:100500008C9186FD0FC00FB607FCF5CF808185FF6B
:10051000F2CFA889B9898C9185FFEDCFCE010E94D9
:100520000B02E7CFDF91CF91089580E090E0892B17
:1005300029F00E94010281110C9400000895AF92ED
:10054000BF92CF92DF92EF92FF920F931F93CF93C0
:10055000DF938C015C018EE0A80EB11CE42EF12C1F
:10056000C0E0D0E0C62ED12CCE15DF0579F0B60163
:100570000C2E02C0759567950A94E2F76170F5013B
:1005800081915F010E94ED002196EECF61E0F801BC
:1005900085850E94ED0060E0F8018585DF91CF91AF
:1005A0001F910F91FF90EF90DF90CF90BF90AF9091
:1005B0000C94ED00FC0186898F3F79F0218532850E
:1005C000662319F0232B31F403C02130310511F4D7
:1005D00061E001C060E00C94ED000895EF92FF929D
:1005E0000F931F93CF93DF931F92CDB7DEB77C019C
:1005F0008A01862F69830E9488006981D7015696F7
:100600006C9356971A961C930E931997ED91FC9143
:100610000484F585E02D60E0C7010F90DF91CF9154
:100620001F910F91FF90EF9009940F931F93CF9319
:10063000DF93EC01162F042F61E0413009F060E0F8
:100640008B850E94ED008C858F3F19F060E00E9441
:10065000ED00023081F08C8184FF02C048E00CC0C4
:10066000612F70E084E0759567958A95E1F744E025
:10067000CE010E949F0244E0612FCE01DF91CF9115
:100680001F910F910C949F02DC01ED91FC91068467
:10069000F785E02D41E0099581E090E00895DC01C7
:1006A000ED91FC910684F785E02D40E00994CF930D
:1006B000DF93CDB7DEB728970FB6F894DEBF0FBE35
:1006C000CDBF1D8290E49E8324E12F8324E52887FB
:1006D00019829A8390E19B8390E59C839091F1012C
:1006E000691710F06FEF690F4091F201262F30E08B
:1006F000FE01E20FF31F403121F4943011F4918197
:1007000001C09581682F690F60688AEE91E0289694
:100710000FB6F894DEBF0FBECDBFDF91CF910C9422
:100720004F030F931F93CF93DF93EC01423018F0E8
:100730008C8188608C834F836887222329F0413025
:1007400019F48C8184608C8364E670E080E090E032
:100750000E945E016C8164FD31C0E881F9810684EC
:10076000F785E02D42E063E0CE0109958BE496E445
:100770000197F1F7E881F9810684F785E02D42E0E1
:1007800063E0CE01099503E512E0C8010197F1F796
:10079000E881F9810684F785E02D42E063E0CE012F
:1007A0000995C8010197F1F7E881F9810684F78579
:1007B000E02D42E062E0CE01099517C06062CE01F3
:1007C0000E944F038BE496E40197F1F76C8160621D
:1007D000CE010E944F0303E512E0C8010197F1F733
:1007E0006C816062CE010E944F03C8010197F1F74E
:1007F0006C816062CE010E944F038BEE90E0019706
:10080000F1F784E08D836CE0CE010E944F0361E03C
:10081000CE010E944F038BE39FE10197F1F782E045
:100820008E8366E0CE010E944F03E881F981048443
:10083000F585E02D6FEFCE01DF91CF911F910F91E4
:10084000099408950895089580E090E00895CF9365
:10085000C2E361E082E00E94ED006AE070E080E0C7
:1008600090E00E945E0160E082E00E94ED006AE09C
:1008700070E080E090E00E945E01C15051F7CF919E
:1008800008950E9483090F931F93CF93DF93EC0188
:1008900088819981009729F02A813B8126173707A3
:1008A00088F48B016F5F7F4F0E94B908009761F059
:1008B000998388831B830A832C813D81232B11F428
:1008C000FC01108281E001C080E0DF91CF911F9197
:1008D0000F910895EF92FF920F931F93CF93DF93A1
:1008E000EC017B018A01BA010E944304288139810D
:1008F00081110DC02115310519F0C9010E9421088F
:10090000198218821D821C821B821A8206C01D83D6
:100910000C83B701C9010E949109CE01DF91CF91EB
:100920001F910F91FF90EF9008951F920F920FB6B5
:100930000F9211242F933F938F939F93AF93BF9365
:100940008091430190914401A0914501B0914601ED
:1009500030913E0123E0230F2D3720F40196A11D95
:10096000B11D05C026E8230F0296A11DB11D2093DD
:100970003E018093430190934401A0934501B093BD
:10098000460180913F0190914001A0914101B091B9
:1009900042010196A11DB11D80933F01909340013A
:1009A000A0934101B0934201BF91AF919F918F916C
:1009B0003F912F910F900FBE0F901F9018951F928F
:1009C0000F920FB60F9211242F933F934F935F9383
:1009D0006F937F938F939F93AF93BF93EF93FF9307
:1009E00087E491E00E940B02FF91EF91BF91AF91DC
:1009F0009F918F917F916F915F914F913F912F9137
:100A00000F900FBE0F901F9018951F920F920FB668
:100A10000F9211242F938F939F93EF93FF93E09165
:100A20005701F09158018081E0915D01F0915E01E4
:100A300082FD12C09081809160018F5F8F73209141
:100A40006101821751F0E0916001F0E0E95BFE4F37
:100A5000958F8093600101C08081FF91EF919F91FC
:100A60008F912F910F900FBE0F901F9018951F938D
:100A7000CF93DF9310924A011092490188EE93E0E0
:100A8000A0E0B0E080934B0190934C01A0934D0106
:100A9000B0934E018AE091E0909348018093470122
:100AA00085EC90E0909354018093530184EC90E0A6
:100AB000909356018093550180EC90E090935801FB
:100AC0008093570181EC90E090935A0180935901F3
:100AD00082EC90E090935C0180935B0186EC90E067
:100AE00090935E0180935D0110926001109261010C
:100AF00010926201109263011092ED011092EC01CC
:100B00008CE191E09093EB018093EA0187E0809380
:100B1000F5018FEF8093F60188E08093F70189E07B
:100B20008093F8018AE08093F9018BE08093FA01C9
:100B30008CE08093FB011092FC011092FD01109259
:100B4000FE011092FF01C8EFD1E01C2F1C5F8991BC
:100B50000E9488001C13FBCF8091F5010E94880041
:100B60008091F6018F3F11F00E9488008091F7017B
:100B70000E9488001092EE0160E08091F5010E94D1
:100B8000ED0060E08091F7010E94ED008091F60198
:100B90008F3F19F060E00E94ED008FEF809300021C
:100BA0001092F4011092F3011092E5011092E40109
:100BB0001092E7011092E6011092E9011092E8010B
:100BC00040E050E06CE371E084EE91E0DF91CF9182
:100BD0001F910C946A04CF93DF93CDB7DEB72897AB
:100BE0000FB6F894DEBF0FBECDBF789484B5826097
:100BF00084BD84B5816084BD85B5826085BD85B5C1
:100C0000816085BD80916E00816080936E0010923E
:100C100081008091810082608093810080918100B9
:100C2000816080938100809180008160809380004A
:100C30008091B10084608093B1008091B0008160A8
:100C40008093B00080917A00846080937A008091D4
:100C50007A00826080937A0080917A00816080932C
:100C60007A0080917A00806880937A001092C100A7
:100C7000E0915701F091580182E08083E0915301A7
:100C8000F09154011082E0915501F09156018FECE2
:100C9000808310925F01E0915B01F0915C0186E03E
:100CA0008083E0915901F0915A01808180618083B5
:100CB000E0915901F0915A01808188608083E09130
:100CC0005901F0915A01808180688083E091590137
:100CD000F0915A0180818F7D808320E042E060E1C5
:100CE0008AEE91E00E94910382E00E9488008BE3EB
:100CF000C82E8FE1D82E87E491E00E94F5011816E6
:100D000019060CF0F1C01A8219821C821B821E8205
:100D10001D8240E050E06CE371E0CE0101960E943C
:100D20006A040E94A70097FD1BC08F8318860D815F
:100D30001E810F5F1F4FB801CE0101960E94430430
:100D4000882379F329813A818D819E81BE01695F73
:100D50007F4F820F931F0E9491091E830D83E1CF65
:100D60008091E4019091E501009789F069817A8191
:100D70006115710551F04091E6015091E7012D8117
:100D80003E814217530708F0B2C00E9421088981B2
:100D90009A819093E5018093E4018B819C819093EB
:100DA000E7018093E6018D819E819093E901809314
:100DB000E8011A8219821C821B821E821D8289818F
:100DC0009A810E9421081A8219821C821B821E822B
:100DD0001D826091E4017091E5016115710541F09A
:100DE0004091E8015091E901CE0101960E946A0408
:100DF000ADB6BEB60E94270468EC70E080E090E0DB
:100E00000E945E010E94270460E080E00E94570378
:100E100040E150E06CE271E08AEE91E00E949901BD
:100E200068E873E180E090E00E945E014D815E81A0
:100E3000CA0101962DB73EB7281B390B0FB6F8949F
:100E40003EBF0FBE2DBF0DB71EB70F5F1F4F7801FE
:100E5000E40EF51E892B79F00115110561F041159D
:100E6000510511F4F80106C069817A81C8010E9418
:100E70009809F701108261E08AEE91E00E944F0329
:100E8000C6010197F1F761E080E10E94570360918C
:100E9000F001862F81608093F00165608AEE91E019
:100EA0000E944F030E151F05A1F0F80161918F01FB
:100EB000E091EA01F091EB010190F081E02D8AEEE2
:100EC00091E0099564EF71E080E090E00E945E019E
:100ED000E9CF0E9427040FB6F894BEBE0FBEADBE88
:100EE00089819A810E9421080E94950204CF0E9464
:100EF00091098D819E819093E9018093E8015DCFF6
:100F00008091E4019091E5010C942108EE0FFF1F00
:100F10000590F491E02D0994CF93DF9382309105F1
:100F200010F482E090E0E0910302F091040220E0EE
:100F300030E0C0E0D0E0309711F140815181481796
:100F40005907C0F04817590761F4828193812097AF
:100F500019F09B838A832BC0909304028093030231
:100F600026C02115310519F04217530718F49A01CC
:100F7000BE01DF01EF010280F381E02DDCCF2115FE
:100F8000310509F1281B390B2430310590F41296F4
:100F90008D919C9113976115710521F0FB0193834D
:100FA000828304C09093040280930302FD01329671
:100FB00044C0FD01E20FF31F819391932250310948
:100FC0002D933C933AC02091010230910202232BD1
:100FD00041F42091020130910301309302022093E9
:100FE000010220910001309101012115310541F4E8
:100FF0002DB73EB74091040150910501241B350BDC
:10100000E0910102F0910202E217F307A0F42E1B17
:101010003F0B2817390778F0AC014E5F5F4F24175C
:10102000350748F04E0F5F1F5093020240930102B4
:101030008193919302C0E0E0F0E0CF01DF91CF9186
:1010400008950F931F93CF93DF93009709F48CC0FB
:10105000FC01329713821282009103021091040264
:101060000115110581F420813181820F931F209198
:101070000102309102022817390779F5F093020234
:10108000E093010271C0D80140E050E0AE17BF0705
:1010900050F412962D913C911397AD012115310515
:1010A00009F1D901F3CF9D01DA01338322836081F5
:1010B0007181860F971F8217930769F4EC012881CD
:1010C0003981260F371F2E5F3F4F318320838A815E
:1010D0009B8193838283452B29F4F0930402E09350
:1010E000030242C01396FC93EE931297ED014991CF
:1010F00059919E01240F351FE217F30771F4808187
:101100009181840F951F029611969C938E938281F4
:10111000938113969C938E931297E0E0F0E0D801B0
:1011200012968D919C911397009719F0F8018C01FC
:10113000F6CF8D919C9198012E5F3F4F820F931FA8
:1011400020910102309102022817390769F4309783
:1011500029F4109204021092030202C01382128238
:101160001093020200930102DF91CF911F910F9122
:101170000895A0E0B0E0EFEBF8E00C94AB09EC01CF
:10118000009721F4CB010E948C07B8C0FC01E60F48
:10119000F71F9C0122503109E217F30708F4ACC095
:1011A000D9010D911C91119706171707B0F0053062
:1011B000110508F49FC0C80104978617970708F423
:1011C00099C002501109061B170B019311936D93DF
:1011D0007C93CF010E9421088DC05B01A01AB10A47
:1011E0004C01800E911EA0910302B091040240E0D8
:1011F00050E0E12CF12C109709F44AC0A815B9056C
:10120000D1F56D907C901197630182E0C80ED11CDE
:10121000CA14DB0480F1A3014A195B096A0182E068
:10122000C80ED11C1296BC9012971396AC91B5E0E3
:10123000CB16D10440F0B282A38351834083D901FD
:101240006D937C930AC00E5F1F4FC301800F911FE7
:10125000F90191838083EB2DFA2FE114F10431F031
:10126000D7011396FC93EE93129744C0F0930402B7
:10127000E09303023FC08D919C9111974817590745
:1012800008F4AC017D0112960D90BC91A02DB3CF56
:10129000809101029091020288159905E1F44617A8
:1012A0005707C8F48091000190910101009741F423
:1012B0008DB79EB74091040150910501841B950B99
:1012C000E817F907C8F4F0930202E0930102F9016C
:1012D000718360830FC0CB010E948C077C01009753
:1012E00059F0A801BE010E948809CE010E94210880
:1012F000C70104C0CE0102C080E090E0CDB7DEB7E8
:10130000EEE00C94C70981E090E0F8940C94DE09BB
:10131000FB01DC0102C001900D9241505040D8F712
:101320000895FB01DC0101900D920020E1F7089582
:10133000FB01DC014150504048F001900D9200202B
:10134000C9F701C01D9241505040E0F708952F9217
:101350003F924F925F926F927F928F929F92AF9245
:10136000BF92CF92DF92EF92FF920F931F93CF9392
:10137000DF93CDB7DEB7CA1BDB0B0FB6F894DEBF29
:101380000FBECDBF09942A88398848885F846E844F
:101390007D848C849B84AA84B984C884DF80EE8099
:1013A000FD800C811B81AA81B981CE0FD11D0FB6A2
:1013B000F894DEBF0FBECDBFED01089510E0CDE57E
:1013C000D0E004C0FE010E9486072196CE35D107E9
:0613D000C9F7F894FFCFFD
:1013D600000005028000000000002C029901C401F3
:1013E6007302F501D301E7010000000044039901EF
:1013F600240423049103EE02DA021503596F7527BC
:0E140600766520676F74206D61696C210000AF
:00000001FF
